{
  "contractName": "ReviewComponent",
  "abi": [
    {
      "inputs": [
        {
          "internalType": "uint256",
          "name": "",
          "type": "uint256"
        }
      ],
      "name": "reviews",
      "outputs": [
        {
          "internalType": "address",
          "name": "reviewer",
          "type": "address"
        },
        {
          "internalType": "string",
          "name": "comment",
          "type": "string"
        },
        {
          "internalType": "uint8",
          "name": "rating",
          "type": "uint8"
        }
      ],
      "stateMutability": "view",
      "type": "function",
      "constant": true
    },
    {
      "inputs": [
        {
          "internalType": "string",
          "name": "_comment",
          "type": "string"
        },
        {
          "internalType": "uint8",
          "name": "_rating",
          "type": "uint8"
        }
      ],
      "name": "addReview",
      "outputs": [],
      "stateMutability": "nonpayable",
      "type": "function"
    },
    {
      "inputs": [],
      "name": "getReviewCount",
      "outputs": [
        {
          "internalType": "uint256",
          "name": "",
          "type": "uint256"
        }
      ],
      "stateMutability": "view",
      "type": "function",
      "constant": true
    },
    {
      "inputs": [
        {
          "internalType": "uint256",
          "name": "_index",
          "type": "uint256"
        }
      ],
      "name": "getReview",
      "outputs": [
        {
          "internalType": "address",
          "name": "",
          "type": "address"
        },
        {
          "internalType": "string",
          "name": "",
          "type": "string"
        },
        {
          "internalType": "uint8",
          "name": "",
          "type": "uint8"
        }
      ],
      "stateMutability": "view",
      "type": "function",
      "constant": true
    }
  ],
  "bytecode": "0x608060405234801561001057600080fd5b50610927806100206000396000f3fe608060405234801561001057600080fd5b506004361061004c5760003560e01c806328c5be3c14610051578063709dc7fb1461006d578063990581b61461008b578063e83ddcea146100bd575b600080fd5b61006b60048036038101906100669190610662565b6100ef565b005b6100756101d9565b60405161008291906106d7565b60405180910390f35b6100a560048036038101906100a0919061071e565b6101e5565b6040516100b493929190610823565b60405180910390f35b6100d760048036038101906100d2919061071e565b61033d565b6040516100e693929190610823565b60405180910390f35b600060405180606001604052803373ffffffffffffffffffffffffffffffffffffffff1681526020018481526020018360ff16815250908060018154018082558091505060019003906000526020600020906003020160009091909190915060008201518160000160006101000a81548173ffffffffffffffffffffffffffffffffffffffff021916908373ffffffffffffffffffffffffffffffffffffffff16021790555060208201518160010190805190602001906101b192919061042c565b5060408201518160020160006101000a81548160ff021916908360ff16021790555050505050565b60008080549050905090565b6000606060008060008581548110610200576101ff610861565b5b90600052602060002090600302016040518060600160405290816000820160009054906101000a900473ffffffffffffffffffffffffffffffffffffffff1673ffffffffffffffffffffffffffffffffffffffff1673ffffffffffffffffffffffffffffffffffffffff16815260200160018201805461027f906108bf565b80601f01602080910402602001604051908101604052809291908181526020018280546102ab906108bf565b80156102f85780601f106102cd576101008083540402835291602001916102f8565b820191906000526020600020905b8154815290600101906020018083116102db57829003601f168201915b505050505081526020016002820160009054906101000a900460ff1660ff1660ff16815250509050806000015181602001518260400151935093509350509193909250565b6000818154811061034d57600080fd5b90600052602060002090600302016000915090508060000160009054906101000a900473ffffffffffffffffffffffffffffffffffffffff1690806001018054610396906108bf565b80601f01602080910402602001604051908101604052809291908181526020018280546103c2906108bf565b801561040f5780601f106103e45761010080835404028352916020019161040f565b820191906000526020600020905b8154815290600101906020018083116103f257829003601f168201915b5050505050908060020160009054906101000a900460ff16905083565b828054610438906108bf565b90600052602060002090601f01602090048101928261045a57600085556104a1565b82601f1061047357805160ff19168380011785556104a1565b828001600101855582156104a1579182015b828111156104a0578251825591602001919060010190610485565b5b5090506104ae91906104b2565b5090565b5b808211156104cb5760008160009055506001016104b3565b5090565b6000604051905090565b600080fd5b600080fd5b600080fd5b600080fd5b6000601f19601f8301169050919050565b7f4e487b7100000000000000000000000000000000000000000000000000000000600052604160045260246000fd5b610536826104ed565b810181811067ffffffffffffffff82111715610555576105546104fe565b5b80604052505050565b60006105686104cf565b9050610574828261052d565b919050565b600067ffffffffffffffff821115610594576105936104fe565b5b61059d826104ed565b9050602081019050919050565b82818337600083830152505050565b60006105cc6105c784610579565b61055e565b9050828152602081018484840111156105e8576105e76104e8565b5b6105f38482856105aa565b509392505050565b600082601f8301126106105761060f6104e3565b5b81356106208482602086016105b9565b91505092915050565b600060ff82169050919050565b61063f81610629565b811461064a57600080fd5b50565b60008135905061065c81610636565b92915050565b60008060408385031215610679576106786104d9565b5b600083013567ffffffffffffffff811115610697576106966104de565b5b6106a3858286016105fb565b92505060206106b48582860161064d565b9150509250929050565b6000819050919050565b6106d1816106be565b82525050565b60006020820190506106ec60008301846106c8565b92915050565b6106fb816106be565b811461070657600080fd5b50565b600081359050610718816106f2565b92915050565b600060208284031215610734576107336104d9565b5b600061074284828501610709565b91505092915050565b600073ffffffffffffffffffffffffffffffffffffffff82169050919050565b60006107768261074b565b9050919050565b6107868161076b565b82525050565b600081519050919050565b600082825260208201905092915050565b60005b838110156107c65780820151818401526020810190506107ab565b838111156107d5576000848401525b50505050565b60006107e68261078c565b6107f08185610797565b93506108008185602086016107a8565b610809816104ed565b840191505092915050565b61081d81610629565b82525050565b6000606082019050610838600083018661077d565b818103602083015261084a81856107db565b90506108596040830184610814565b949350505050565b7f4e487b7100000000000000000000000000000000000000000000000000000000600052603260045260246000fd5b7f4e487b7100000000000000000000000000000000000000000000000000000000600052602260045260246000fd5b600060028204905060018216806108d757607f821691505b602082108114156108eb576108ea610890565b5b5091905056fea264697066735822122034c6fb0b1089f004833d6b75828bc4aa2f52e4ff7a4c689d3eb28702b7555bce64736f6c63430008090033",
  "immutableReferences": {},
  "source": "// SPDX-License-Identifier: MIT\npragma solidity 0.8.9;\n\ncontract ReviewComponent {\n \n struct Review {\n    address reviewer;\n    string comment;\n    uint8 rating;\n  }\n\n  Review[] public reviews;\n\n  function addReview(string memory _comment, uint8 _rating) public {\n    reviews.push(Review(msg.sender, _comment, _rating));\n  }\n\n  function getReviewCount() public view returns (uint256) {\n    return reviews.length;\n  }\n\n  function getReview(uint256 _index) public view returns (address, string memory, uint8) {\n    Review memory review = reviews[_index];\n    return (review.reviewer, review.comment, review.rating);\n  }\n}\n",
  "sourcePath": "C:\\Users\\SUS\\Desktop\\FRONTEND-main (3)\\FRONTEND-main\\src\\contracts\\ReviewComponent.sol",
  "compiler": {
    "name": "solc",
    "version": "0.8.9+commit.e5eed63a.Emscripten.clang"
  },
  "schemaVersion": "3.4.13",
  "updatedAt": "2023-05-10T22:58:11.164Z",
  "networkType": "ethereum",
  "devdoc": {
    "kind": "dev",
    "methods": {},
    "version": 1
  },
  "userdoc": {
    "kind": "user",
    "methods": {},
    "version": 1
  }
}